:100000000C94EF030C9420040C9420040C94200412
:100010000C9420040C9420040C9420040C942004D0
:100020000C9420040C9420040C9420040C942004C0
:100030000C9420040C9420040C9420040C942004B0
:100040000C9420040C9420040C9420040C942004A0
:100050000C9420040C9420040C9420040C94BF0BEA
:100060000C9420040C94330C0C94090C0C94200474
:100070000C9420040C9420040C9420040C94200470
:100080000C9420040C9420040C9420040C94200460
:100090000C9420040C9420040C9420040C94200450
:1000A0000C9420040C9420040C9420040C94200440
:1000B0000C9420040C9420040C9420040C94200430
:1000C0000C9420040C9420040C9420040C94200420
:1000D0000C9420040C9420040C9420040C94200410
:1000E0000C9420040C941E060C94C3040C94BD04C0
:1000F0000C94C7040C94690C0C94AB040C94880405
:100100000C9471040C94BA0B0C940C070C94BE0A5A
:100110000C948B050C9468050C9442080C94900484
:100120000C94AF080C940A090C948C040C94B90438
:100130000C9476040C94AF040C94B5040C94520700
:100140000C940D0B0C94D6070C943B050C942505D0
:100150000C94A7040C9499050C94D1050C94970465
:100160000C94A1040C94B90B0C9477050C94940492
:100170000C946F060C949D0400000000003E5B4F41
:100180005B3E3E6B4F6B3E1C3E7C3E1C183C7E3CF7
:10019000181C577D571C1C5E7F5E1C00183C180005
:1001A000FFE7C3E7FF0018241800FFE7DBE7FF3095
:1001B000483A060E2629792926407F050507407F03
:1001C00005253F5A3CE73C5A7F3E1C1C08081C1C76
:1001D0003E7F14227F22145F5F005F5F06097F016C
:1001E0007F006689956A606060606094A2FFA29457
:1001F00008047E040810207E201008082A1C080825
:100200001C2A08081E101010100C1E0C1E0C303872
:100210003E3830060E3E0E06000000000000005F73
:1002200000000007000700147F147F14242A7F2A8F
:100230001223130864623649562050000807030051
:10024000001C2241000041221C002A1C7F1C2A089D
:10025000083E080800807030000808080808000000
:1002600060600020100804023E5149453E00427F74
:10027000400072494949462141494D331814127FC3
:100280001027454545393C4A494931412111090763
:100290003649494936464949291E000014000000E4
:1002A00040340000000814224114141414140041B6
:1002B00022140802015909063E415D594E7C121173
:1002C000127C7F494949363E414141227F414141AB
:1002D0003E7F494949417F090909013E4141517326
:1002E0007F0808087F00417F41002040413F017F97
:1002F000081422417F404040407F021C027F7F045F
:1003000008107F3E4141413E7F090909063E4151A7
:10031000215E7F09192946264949493203017F0197
:10032000033F4040403F1F2040201F3F4038403F98
:10033000631408146303047804036159494D4300AE
:100340007F4141410204081020004141417F0402E5
:10035000010204404040404000030708002054547C
:1003600078407F284444383844444428384444285A
:100370007F385454541800087E090218A4A49C78AD
:100380007F0804047800447D40002040403D007F09
:100390001028440000417F40007C047804787C08E9
:1003A0000404783844444438FC18242418182424BD
:1003B00018FC7C08040408485454542404043F44A2
:1003C000243C4040207C1C2040201C3C4030403CD1
:1003D00044281028444C9090907C4464544C440031
:1003E0000836410000007700000041360800020195
:1003F0000204023C2623263C1EA1A161123A404081
:10040000207A3854545559215555794121545478FE
:1004100041215554784020545579400C1E52721297
:10042000395555555939545454593955545458001F
:1004300000457C410002457D420001457C40F02999
:100440002429F0F0282528F07C54554500205454E8
:100450007C547C0A097F493249494932324848482C
:1004600032324A4848303A4141217A3A4240207873
:10047000009DA0A07D39444444393D4040403D3C6E
:1004800024FF2424487E4943662B2FFC2F2BFF0991
:1004900029F620C0887E0903205454794100004485
:1004A0007D413048484A32384040227A007A0A0A70
:1004B000727D0D19317D2629292F282629292926E3
:1004C00030484D4020380808080808080808382F28
:1004D00010C8ACBA2F102834FA00007B00000814B2
:1004E0002A142222142A1408AA005500AAAA55AADE
:1004F00055AA000000FF00101010FF00141414FF94
:10050000001010FF00FF1010F010F0141414FC0085
:100510001414F700FF0000FF00FF1414F404FC148F
:100520001417101F10101F101F1414141F00101088
:1005300010F0000000001F101010101F10101010FD
:10054000F010000000FF101010101010101010FF1D
:1005500010000000FF140000FF00FF00001F101734
:100560000000FC04F414141710171414F404F4001D
:1005700000FF00F714141414141414F700F71414E3
:1005800014171410101F101F141414F4141010F06A
:1005900010F000001F101F0000001F14000000FCDE
:1005A000140000F010F01010FF10FF141414FF14CA
:1005B0001010101F00000000F010FFFFFFFFFFF001
:1005C000F0F0F0F0FFFFFF0000000000FFFF0F0F52
:1005D0000F0F0F38444438447C2A2A3E147E02020E
:1005E0000606027E027E0263554941633844443C5C
:1005F00004407E201E2006027E020299A5E7A599EE
:100600001C2A492A1C4C7201724C304A4D4D303024
:1006100048784830BC625A463D3E494949007E010F
:1006200001017E2A2A2A2A2A44445F444440514A2E
:10063000444040444A51400000FF0103E080FF0075
:100640000008086B6B083612362436060F090F06B1
:10065000000018180000001010003040FF010100D9
:100660001F01011E00191D1712003C3C3C3C0000FC
:1006700000000013018032118064260104B1020BD6
:1006800014C0020800C10105C5024130C701C1EC18
:10069000011B3A8155642A040000007F2B040000EE
:1006A000009F3601C8B70100F20100E08F28242224
:1006B000312B0E53A5421618121A140332E18F176C
:1006C0001B1D0E14112CA53D09272D252B3C321383
:1006D000800A2980FF00000A0B02090C0D0E080792
:1006E0000304010000000000000000000000000002
:1006F00000000000000000000000000000000000FA
:1007000000121110000000000000000000000000B6
:100710000000000000000000000000000022002592
:100720000028002B002E00310034000201000005DB
:100730000108010B0100002100240027002A002DE0
:10074000003000330001010000040107010A010527
:10075000050505070508080808020202020A0A083A
:100760000804040404010101010101010103030360
:100770000303030303040707070C0C0C0C0C0C0CFD
:100780000C0202020206060606060606060B0B0B04
:100790000B0B0B0B0B01021020200808102040103F
:1007A0002040800201020108040201010204081035
:1007B0002040808040201008040201800402018053
:1007C000402010080402010804020101020408107C
:1007D000204080010204081020408000690C112490
:1007E0001FBECFEFD1E2DEBFCDBF00E00CBF12E0F5
:1007F000A0E0B2E0E8EEFDE100E00BBF02C0079030
:100800000D92AA33B107D9F723E0AAE3B2E001C001
:100810001D92A531B207E1F713E0CFEED3E000E07F
:1008200006C021970109802FFE010E94E50ECE3EF1
:10083000D10780E00807A9F70E94C40C0C94F20EBF
:100840000C94000090E0FC01EB56F84F2491815B82
:10085000984FFC018491882399F090E0880F991FAC
:10086000FC01EB5CF84FA591B491FC01E55EF84FFB
:10087000859194918FB7F894EC91E22BEC938FBF14
:100880000895282F30E0F901EB52F94F9491F901C6
:10089000EB56F84F4491215B384FF9012491222304
:1008A00009F435C0992311F191509231F8F4E92FF0
:1008B000F0E08827E15AFB4F8F4F0C94E50E90042F
:1008C0009404710488048C04760497049D04A104A4
:1008D000A704AB04AF04B504B9047604BD04C30493
:1008E000C704809180008F7780938000E22FF0E032
:1008F000EE0FFF1FE55EF84FA591B4918FB7F89406
:10090000EC91611148C040954E234C938FBF0895E0
:10091000809180008F7DE8CF80918000877FE4CF39
:1009200084B58F7784BDE2CF84B58F7DFBCF809176
:10093000B0008F778093B000D9CF8091B0008F7DC9
:10094000F9CF809190008F7780939000CFCF8091E6
:1009500090008F7DF9CF80919000877FF5CF8091B7
:10096000A0008F778093A000C1CF8091A0008F7DE1
:10097000F9CF8091A000877FF5CF809120018F77FC
:1009800080932001B3CF809120018F7DF9CF80919A
:100990002001877FF5CF4E2BB8CF3FB7F8948091D9
:1009A000400290914102A0914202B091430226B5CB
:1009B000A89B05C02F3F19F00196A11DB11D3FBF97
:1009C000BA2FA92F982F8827BC01CD01620F711D66
:1009D000811D911D42E0660F771F881F991F4A9560
:1009E000D1F708958F929F92AF92BF92CF92DF92EC
:1009F000EF92FF926B017C010E94CD044B015C01E0
:100A0000C114D104E104F104B9F00E94CD046819C5
:100A100079098A099B09683E73408105910580F335
:100A200021E0C21AD108E108F10888EE880E83E0BF
:100A3000981EA11CB11CE4CFFF90EF90DF90CF90E7
:100A4000BF90AF909F908F90089538E0439FC00172
:100A50001124807E977030E043E0359527954A95C4
:100A6000E1F7822B932B70E0762F66276627787F3D
:100A7000862B972B0895AF92BF92CF92DF92EF9281
:100A8000FF920F931F93CF93DF936C017B018B0138
:100A9000040F151FEB015E01AE18BF08C017D10788
:100AA00059F06991D601ED91FC910190F081E02D12
:100AB000C6011995892B79F7C501DF91CF911F9157
:100AC0000F91FF90EF90DF90CF90BF90AF9008957F
:100AD000FC01538D448D252F30E0842F90E0821B44
:100AE000930B541710F0CF96089501970895FC01C9
:100AF000918D828D981761F0A28DAE0FBF2FB11D21
:100B00005D968C91928D9F5F9F73928F90E0089578
:100B10008FEF9FEF0895FC01918D828D981731F032
:100B2000828DE80FF11D858D90E008958FEF9FEF86
:100B30000895FC01918D228D892F90E0805C9F4F5C
:100B4000821B91098F739927089584E492E00E9493
:100B5000990521E0892B09F420E0822F0895FC01FA
:100B6000A48DA80FB92FB11DA35ABF4F2C91848D0E
:100B700090E001968F739927848FA689B7892C936B
:100B8000A089B1898C91837080648C93938D848DBE
:100B9000981306C00288F389E02D80818F7D8083C1
:100BA0000895EF92FF920F931F93CF93DF93EC0181
:100BB00081E0888F9B8D8C8D98131AC0E889F98904
:100BC000808185FF15C09FB7F894EE89FF89608307
:100BD000E889F98980818370806480839FBF81E088
:100BE00090E0DF91CF911F910F91FF90EF900895CA
:100BF000F62E0B8D10E00F5F1F4F0F731127E02EA5
:100C00008C8D8E110CC00FB607FCFACFE889F989DC
:100C1000808185FFF5CFCE010E94AF05F1CFEB8D2E
:100C2000EC0FFD2FF11DE35AFF4FF0829FB7F894B0
:100C30000B8FEA89FB8980818062CFCFCF93DF93CE
:100C4000EC01888D8823B9F0AA89BB89E889F989E4
:100C50008C9185FD03C0808186FD0DC00FB607FC19
:100C6000F7CF8C9185FFF2CF808185FFEDCFCE014C
:100C70000E94AF05E9CFDF91CF91089580E090E029
:100C8000892B29F00E94A50581110E94000080E0B7
:100C900090E0892B49F080E090E0892B29F00E94B8
:100CA000000081110E94000080E090E0892B49F053
:100CB00080E090E0892B29F00E94000081110E94C1
:100CC000000080E090E0892B49F080E090E0892BE3
:100CD00029F00E94000081110C9400000895EF9209
:100CE000FF920F931F93DC011A960D911C911B9795
:100CF00018962D913C911997ED91FC910288F389FA
:100D0000E02D7B0150E040E070E060E019951F911C
:100D10000F91FF90EF900895FC01868D28E030E060
:100D200090E8882339F06EBD00000DB407FEFDCFBA
:100D30008EB50895A1A1B2A186A5462F4923A9F099
:100D40004C91842B8C93A3A1B4A18C9147A5842BA7
:100D50008C93A3A1B4A14C9187A5809584238C93F7
:100D600096952150310931F708954C91809584234F
:100D7000E9CF08958CBD9DBD08951F93CF93DF9358
:100D8000EC01162F8E8D882321F08F8D98A10E9463
:100D9000BA06EFA1F8A5808199A9892B8083EDA1DE
:100DA000FEA1908188A9809589238083612FCE013F
:100DB0000E948C06EDA1FEA1808198A9892B8083D9
:100DC000DF91CF911F9108951F93CF93DF93EC0193
:100DD000162F8E8D882321F08F8D98A10E94BA0640
:100DE000EFA1F8A5908189A9809589238083EDA141
:100DF000FEA1908188A9809589238083612FCE01EF
:100E00000E948C06EDA1FEA1808198A9892B808388
:100E1000DF91CF911F910895611103C060E20C949E
:100E2000E40661E2FCCFEF92FF920F931F93CF9302
:100E3000DF93EC01E62E142FF22E6AE20E94E40604
:100E400060E0CE010E94BD066AA96E0DCE010E942F
:100E5000BD0660E0CE010E94BD066AA96F0DCE01FD
:100E60000E94BD066BE2CE010E94E40660E0CE0166
:100E70000E94BD066BA9610FCE010E94BD0660E015
:100E8000CE010E94BD066BA9600FCE010E94BD0677
:100E90006CE2CE01DF91CF911F910F91FF90EF9007
:100EA0000C94E406AF92BF92CF92DF92EF92FF9242
:100EB0000F931F93CF93DF93EC01590168012885AD
:100EC0003985621773070CF066C08A859B854817C1
:100ED00059070CF060C0FB01EA0DFB1D2E173F0700
:100EE0001CF45901A61AB70A9A012C0D3D1D821750
:100EF00093071CF46C01C41AD50A8D8D823091F4CD
:100F0000C701982F8827990F990F990F9701207E75
:100F10003770822B932BEF2CFF24E694E694E69413
:100F2000E82AF92A0FEF040F0C0D2FEF260F2A0DD8
:100F3000CE010E9413078E8D882321F08F8D98A1FA
:100F40000E94BA06EFA1F8A5808199A9892B808318
:100F5000EDA1FEA1908188A98095892380831C142E
:100F60001D049CF48501101611065CF46F2DCE0152
:100F70000E948C066E2DCE010E948C060150110934
:100F8000F2CF81E0C81AD108EACFEDA1FEA180819D
:100F900098A9892B8083DF91CF911F910F91FF90AA
:100FA000EF90DF90CF90BF90AF900895CF92DF92F7
:100FB000EF92FF920F931F93CF93DF93EC016901A0
:100FC000780188859985681779070CF052C02A85C1
:100FD0003B85421753070CF04CC09B012C0D3D1D67
:100FE000821793071CF46C01C61AD70A2FEF260F3D
:100FF0002C0D042FCE010E9413078D8D823091F4A9
:10100000C701982F8827990F990F990F9701207E74
:101010003770822B932BEF2CFF24E694E694E69412
:10102000E82AF92A8E8D882321F08F8D98A10E94BD
:10103000BA06EFA1F8A5808199A9892B8083EDA13B
:10104000FEA1908188A980958923808381E0C81AB8
:10105000D10848F06F2DCE010E948C066E2DCE0176
:101060000E948C06F3CFEDA1FEA1808198A9892B67
:101070008083DF91CF911F910F91FF90EF90DF90D0
:10108000CF900895CF92DF92EF92FF920F931F932C
:10109000CF93DF93EC016901780188859985681702
:1010A00079070CF053C08A859B85481759070CF0C7
:1010B0004DC09A012C0D3D1D821793071CF46C0145
:1010C000C41AD50A0FEF040F0C0D262FCE010E9473
:1010D00013078D8D823091F4C701982F8827990FBF
:1010E000990F990F9701207E3770822B932BEF2C4D
:1010F000FF24E694E694E694E82AF92A0F2D8E8DD3
:10110000882321F08F8D98A10E94BA06EFA1F8A53F
:10111000808199A9892B8083EDA1FEA1908188A966
:1011200080958923808381E0C81AD10848F0602F18
:10113000CE010E948C066E2DCE010E948C06F3CF4C
:10114000EDA1FEA1808198A9892B8083DF91CF91A9
:101150001F910F91FF90EF90DF90CF900895EF9245
:10116000FF920F93CF93DF93EC01790177FD4BC092
:1011700088859985681779070CF045C057FD43C0ED
:101180008A859B8548175907F4F501E0040F21E093
:10119000260FCE010E9413078E8D882321F08F8D9C
:1011A00098A10E94BA06EFA1F8A5808199A9892B80
:1011B0008083EDA1FEA1908188A9809589238083F9
:1011C0008D8D823091F4C701982F8827990F990F40
:1011D000990F9701207E3770822B932BEF2CFF24E1
:1011E000E694E694E694E82AF92A6F2DCE010E944F
:1011F0008C066E2DCE010E948C06EDA1FEA1808191
:1012000098A9892B8083DF91CF910F91FF90EF9068
:10121000089508952F923F924F925F926F927F921E
:101220008F929F92AF92BF92CF92DF92EF92FF92F6
:101230000F931F93CF93DF93CDB7DEB72C970FB6E5
:10124000F894DEBF0FBECDBF9C838B836A3061F5FF
:10125000DC0154968C91B8E08B9F90011124EB81B6
:10126000FC8186859785820F931F978786871586D1
:10127000148681E090E02C960FB6F894DEBF0FBE86
:10128000CDBFDF91CF911F910F91FF90EF90DF9035
:10129000CF90BF90AF909F908F907F906F905F9016
:1012A0004F903F902F9008956D3019F32B813C8122
:1012B0003C872B87D9011C96CD90DC901D97189602
:1012C0008D919C911997C816D9060CF07FC01E9677
:1012D0008D909C901F971A968D919C911B978816C4
:1012E00099060CF073C05496BC91B983AB2EB12C07
:1012F000C601E6E0BE9F800D911D11241816190647
:101300000CF064C0C50143E0880F991F4A95E1F7CE
:10131000880D991D181619060CF058C0D90152965F
:101320000D90BC91A02DBC83AB83F9010088F1899D
:10133000E02DFE83ED83F5E06F9FB00111242601BF
:101340001A826C197D099B0128583E4F3A872987DC
:101350003A81E0E0353029F0E985FA85E40DF51DA4
:10136000E4911401712C612C8E2F90E098878F836B
:10137000E0FF6AC0AB85BC85ED91FC91B981B130CD
:1013800009F055C00084F185E02D2D813E81A40136
:10139000460D571DB2018B859C851995EF81F88507
:1013A000F595E795FFEF6F1A7F0A2A0C3B1C28E0A2
:1013B00062167104C9F63FEF431A530ACA0CDB1CCC
:1013C0005A815F5F5A83563009F0C2CFAB85BC8526
:1013D00054964C915497242F30E01C968D919C91FB
:1013E000B6E04B9F800D911D1124EB85FC85958700
:1013F00084874689442309F43CCF6AEF6203A00145
:10140000639F500D112460857185460F571F481743
:1014100059070CF02ECF83E0220F331F8A95E1F796
:1014200086859785280F391F3787268720CF028822
:10143000F389E02DED80FE8085019501A101B601C3
:101440008B859C851995AACFEB81FC812D813E81EE
:10145000E217F30709F4A2CFAB85BC85ED91FC91AF
:10146000B981B13031F40084F185E02D2B813C81CC
:101470008ECF0288F389E02DEB80FC80DDCFEF92E8
:10148000FF920F931F93DC011A960D911C911B97ED
:1014900018962D913C911997ED91FC910288F38952
:1014A000E02D7B0150E040E070E060E019951F9175
:1014B0000F91FF90EF9008956F927F928F929F927D
:1014C000AF92BF92CF92DF92EF92FF920F931F9352
:1014D000CF93DF936C015A014801EB013B01620E8F
:1014E000731EC615D70574F4D601ED91FC910484E2
:1014F000F585E02D87019401A501BE01C60119956E
:101500002196EFCFDF91CF911F910F91FF90EF9038
:10151000DF90CF90BF90AF909F908F907F906F9013
:101520000895EF92FF920F931F93260F371F2150BC
:101530003109DC01ED91FC910284F385E02D780105
:101540008A0119951F910F91FF90EF900895EF92E6
:10155000FF920F931F93240F351F21503109DC0197
:10156000ED91FC910284F385E02D780189019B01C6
:1015700019951F910F91FF90EF9008956F927F92B0
:101580008F929F92AF92BF92CF92DF92EF92FF9293
:101590000F931F93CF93DF93EC016B015A01390135
:1015A0004801E881F9810684F785E02D87011995C6
:1015B000A501480D591D41505109E881F981068462
:1015C000F785E02D9301B601CE011995E881F981E7
:1015D0000484F585E02D9401A501B601CE0119958D
:1015E000C60CD71CB60161507109E881F9810484E9
:1015F000F585E02D9401A501CE011995DF91CF91DC
:101600001F910F91FF90EF90DF90CF90BF90AF9020
:101610009F908F907F906F9008952F923F924F925E
:101620005F926F927F928F929F92AF92BF92CF9272
:10163000DF92EF92FF920F931F93CF93DF9300D02F
:1016400000D0CDB7DEB73C016A013E832D83FC821A
:10165000EB825801A41AB50AB7FE03C0B194A19455
:10166000B1088D809E80861A970A97FE03C09194D8
:10167000819491088A149B045CF0902F812F0D8136
:101680001E819D838E839C2D8D2D6B01692F782F5C
:101690000C151D055CF09D818E817E836D83692F05
:1016A000782F902F812F8601C92ED82E1601201A4F
:1016B000310A2B012D813E81421A530A57FE03C085
:1016C000519441945108710137FE03C03FEFE31A72
:1016D000F30AF594E7948D819E81861797075CF550
:1016E000A1E0B0E0BA83A983C016D1064CF1D301C2
:1016F000ED91FC910084F185E02D2B813C81A801C6
:101700006D817E818A149B041CF04D815E81B8013D
:10171000C3011995E418F508F7FE0AC02D813E8132
:1017200089819A81280F391F3E832D83E20CF31C97
:101730000F5F1F4FD9CF2FEF3FEF3A832983D4CFCD
:1017400026960FB6F894DEBF0FBECDBFDF91CF91C6
:101750001F910F91FF90EF90DF90CF90BF90AF90CF
:101760009F908F907F906F905F904F903F902F90C1
:101770000895089590E080E008950E94ED0E1F9274
:101780000F920FB60F9211242F933F938F939F9335
:10179000AF93BF9380913C0290913D02A0913E0295
:1017A000B0913F0230913B0223E0230F2D3758F5D3
:1017B0000196A11DB11D20933B0280933C029093A2
:1017C0003D02A0933E02B0933F028091400290916F
:1017D0004102A0914202B09143020196A11DB11DA8
:1017E0008093400290934102A0934202B09343023F
:1017F000BF91AF919F918F913F912F910F900FBE0D
:101800000F901F90189526E8230F0296A11DB11D79
:10181000D2CF1F920F920FB60F9211240BB60F92D8
:101820002F933F934F935F936F937F938F939F93E8
:10183000AF93BF93EF93FF9384E492E00E94AF05D0
:10184000FF91EF91BF91AF919F918F917F916F9198
:101850005F914F913F912F910F900BBE0F900FBE54
:101860000F901F9018951F920F920FB60F92112490
:101870000BB60F922F938F939F93EF93FF93E0916B
:101880005402F09155028081E0915A02F0915B027E
:1018900082FD1DC0908180915D028F5F8F732091CA
:1018A0005E02821741F0E0915D02F0E0EC5BFD4FDB
:1018B000958F80935D02FF91EF919F918F912F9172
:1018C0000F900BBE0F900FBE0F901F901895808148
:1018D000F2CFE4E4F2E01382128288EE93E0A0E01B
:1018E000B0E084839583A683B78384E092E09183FC
:1018F000808385EC90E09587848784EC90E09787DF
:10190000868780EC90E0918B808B81EC90E0938BCC
:10191000828B82EC90E0958B848B86EC90E0978BA9
:10192000868B118E128E138E148EE1EEF2E01382EE
:10193000128220E830E03583248340EA50E0578368
:101940004683158A158614861786168681E0848B51
:101950006FEF7FEF738B628B718B608B868B90E563
:10196000978F10A29AE091A799E092A798E093A789
:10197000868F15A614A686E192E091838083518715
:101980004087338722870895789484B5826084BD28
:1019900084B5816084BD85B5826085BD85B5816073
:1019A00085BD80916E00816080936E0010928100F1
:1019B00080918100826080938100809181008160AC
:1019C000809381008091800081608093800080916D
:1019D000B10084608093B1008091B00081608093F9
:1019E000B00080919100826080939100809191007D
:1019F000816080939100809190008160809390003D
:101A00008091A10082608093A1008091A1008160FB
:101A10008093A1008091A00081608093A0008091BC
:101A20002101826080932101809121018160809356
:101A300021018091200181608093200180917A00B2
:101A4000846080937A0080917A00826080937A002B
:101A500080917A00816080937A0080917A0080681A
:101A600080937A001092C100109214031092130315
:101A700080910B030E94220480910A030E94220499
:101A800080910A0390E0FC01E15BF84FE491F0E003
:101A9000EE0FFF1FE55EF84F259134913093070359
:101AA00020930603FC01EB56F84FE491E0931103F9
:101AB00080910B0390E0FC01E15BF84FE491F0E0D2
:101AC000EE0FFF1FE55EF84F259134913093090327
:101AD00020930803FC01EB56F84FE491E0931203C6
:101AE0008091FF02882309F48DC0CFB7F8948091CC
:101AF0003A02811124C0E4E8F7E08491EAECF7E0CF
:101B00009491E82FF0E0EE0FFF1FEB5CF84FA591EA
:101B1000B491EC91E92321F461E085E30E94410452
:101B200085E30E9422048CB580618CBD8CB58064F5
:101B30008CBD84E30E94220483E30E9422048091EE
:101B40003A028F5F80933A02CFBF80E58093000313
:101B500010920103E0910603F091070390818091B8
:101B6000110380958923808380910C03882319F1C8
:101B70000E94220461E080910C030E94410464EF02
:101B800071E080E090E00E94F20460E080910C033C
:101B90000E94410464EF71E080E090E00E94F20452
:101BA00061E080910C030E94410464EF71E080E0E9
:101BB00090E00E94F204E3E7F6E0F490C4E7D6E098
:101BC000FA94FFEFFF1609F47AC0FE01649181EEEA
:101BD00092E00E94E4066E01F2E0CF0ED11CFE01FD
:101BE0003196E490CE2DCF778601DC2FD15008F4CA
:101BF00050C0F801649181EE92E00E94BD060F5F33
:101C00001F4FF4CF80910E030E94220480910D0398
:101C10000E94220480910E0390E0FC01E15BF84FEA
:101C2000E491F0E0EE0FFF1FE55EF84FA591B4914F
:101C3000B0930503A09304038B56984FFC01849145
:101C40008093100320910D0330E0F901E15BF84F20
:101C5000E491F0E0EE0FFF1FE55EF84F45915491DF
:101C60005093030340930203F901EB56F84FE491BC
:101C7000E0930F03EC9180958E238C93E091020307
:101C8000F0910303908180910F03809589238083D5
:101C900061CFCC0DDD2DD11DE7FE92CF8E010F5F00
:101CA0001F4FFE01649170E06F3F710511F464EF06
:101CB00071E090E080E00E94F204E80181CF66E3E9
:101CC00081EE92E00E94E406C1E0C093F60268EA69
:101CD00081EE92E00E94BD0680EA90E09093EA02D5
:101CE0008093E90280E890E09093EC028093EB020D
:101CF00070E060E081EE92E00E946F06C093FA020D
:101D00008FEF9FEF9093F9028093F8029093F20285
:101D10008093F1029093F4028093F302C2E0C093A7
:101D2000F5021092F7021092EE021092ED0210925C
:101D3000F0021092EF0244E050E060E372E081EEC6
:101D400092E00E943B0585E08093F502E091540209
:101D5000F0915502C083E0915002F091510210823F
:101D6000E0915202F09153028FEC808310925C025A
:101D7000E0915802F091590286E08083E09156028A
:101D8000F0915702808180618083E0915602F0914A
:101D90005702808188608083E0915602F09157025B
:101DA000808180688083E0915602F09157028081A3
:101DB0008F7D808344E050E065E372E084E492E04C
:101DC0000E943B050E943E06FDCFEE0FFF1F881FBD
:101DD0008BBF0790F691E02D199481E090E0F89484
:081DE0000C94F20EF894FFCF01
:101DE80000000000D1053B0568051E06990577052A
:101DF8008B05000000000A093B05BA0BB90BAF08B8
:101E08000D0B4208D607BE0A52076F060C072505B8
:0A1E18005465737400746573740060
:00000001FF
